S00B000045564D2E7372656331
S11300000C942A000C9447000C9447000C9447006D
S11300100C9447000C9447000C9447000C94470040
S11300200C9447000C9447000C9447000C94470030
S11300300C9447000C9447000C9447000C94470020
S11300400C9447000C9447000C9447000C94470010
S11300500C94470011241FBECFE5D8E0DEBFCDBF0E
S113006010E0A0E6B0E0EEE4FAE002C005900D92E4
S1130070A437B107D9F710E0A4E7B0E001C01D929E
S1130080A837B107E1F70E94FC020C9425050C94F3
S1130090000040E00E94500008950E945601089517
S11300A0823451F1833420F4813409F07BC007C0D9
S11300B0833409F43EC0843409F074C057C041301D
S11300C069F42AB381E090E0AC0102C0440F551FEB
S11300D06A95E2F7BA01622B6ABB08952AB381E0FC
S11300E090E0AC0102C0440F551F6A95E2F7BA01D3
S11300F0609562236ABB0895413069F427B381E0B7
S113010090E0AC0102C0440F551F6A95E2F7BA01B2
S1130110622B67BB089527B381E090E0AC0102C075
S1130120440F551F6A95E2F7BA016095622367BBD5
S11301300895413069F424B381E090E0AC0102C039
S1130140440F551F6A95E2F7BA01622B64BB089508
S113015024B381E090E0AC0102C0440F551F6A95BE
S1130160E2F7BA016095622364BB0895413069F4F3
S113017021B381E090E0AC0102C0440F551F6A95A1
S1130180E2F7BA01622B61BB089521B381E090E0EC
S1130190AC0102C0440F551F6A95E2F7BA0160959D
S11301A0622361BB0895823451F1833420F4813495
S11301B009F07BC007C0833409F43EC0843409F0DD
S11301C074C057C0413069F42BB381E090E0AC01B6
S11301D002C0440F551F6A95E2F7BA01622B6BBB4C
S11301E008952BB381E090E0AC0102C0440F551F89
S11301F06A95E2F7BA01609562236BBB08954130BA
S113020069F428B381E090E0AC0102C0440F551FAB
S11302106A95E2F7BA01622B68BB089528B381E0BE
S113022090E0AC0102C0440F551F6A95E2F7BA0191
S11302306095622368BB0895413069F425B381E079
S113024090E0AC0102C0440F551F6A95E2F7BA0171
S1130250622B65BB089525B381E090E0AC0102C038
S1130260440F551F6A95E2F7BA016095622365BB96
S11302700895413069F422B381E090E0AC0102C0FA
S1130280440F551F6A95E2F7BA01622B62BB0895C9
S113029022B381E090E0AC0102C0440F551F6A957F
S11302A0E2F7BA016095622362BB08958234F1F0EB
S11302B0833420F4813409F04FC006C0833441F103
S11302C0843409F049C036C029B381E090E0062E99
S11302D002C0880F991F0A94E2F730E08223932327
S11302E002C0959587956A95E2F7089526B381E053
S11302F090E0062E02C0880F991F0A94E2F730E0BE
S11303008223932302C0959587956A95E2F7089511
S113031023B381E090E0062E02C0880F991F0A944F
S1130320E2F730E08223932302C0959587956A957E
S1130330E2F7089520B381E090E0062E02C0880F12
S1130340991F0A94E2F730E08223932302C0959523
S113035087956A95E2F7089580E008958234B9F0AC
S1130360833418F48134C9F505C08334E9F0843446
S1130370A1F527C02BB381E090E0AC0102C0440F8B
S1130380551F6A95E2F7BA0162276BBB089528B33B
S113039081E090E0AC0102C0440F551F6A95E2F77A
S11303A0BA01622768BB089525B381E090E0AC01EF
S11303B002C0440F551F6A95E2F7BA01622765BB74
S11303C0089522B381E090E0AC0102C0440F551FB0
S11303D06A95E2F7BA01622762BB0895823461F03C
S11303E0833418F4813469F405C0833439F08434D7
S11303F041F406C06ABB089567BB089564BB0895C1
S113040061BB0895823461F0833418F4813469F453
S113041005C0833439F0843441F406C06BBB0895BD
S113042068BB089565BB089562BB0895823461F08A
S1130430833418F4813471F405C0833439F084347E
S113044049F406C089B3089586B3089583B3089523
S113045080B3089580E00895823451F1833420F408
S1130460813409F07BC007C0833409F43EC084346E
S113047009F074C057C0413069F42BB381E090E0B7
S1130480AC0102C0440F551F6A95E2F7BA01622B12
S11304906BBB08952BB381E090E0AC0102C0440F24
S11304A0551F6A95E2F7BA01609562236BBB089504
S11304B0413069F428B381E090E0AC0102C0440FFC
S11304C0551F6A95E2F7BA01622B68BB089528B3F9
S11304D081E090E0AC0102C0440F551F6A95E2F739
S11304E0BA016095622368BB0895413069F425B36D
S11304F081E090E0AC0102C0440F551F6A95E2F719
S1130500BA01622B65BB089525B381E090E0AC018C
S113051002C0440F551F6A95E2F7BA016095622341
S113052065BB0895413069F422B381E090E0AC01E9
S113053002C0440F551F6A95E2F7BA01622B62BBF1
S1130540089522B381E090E0AC0102C0440F551F2E
S11305506A95E2F7BA016095622362BB08956F70F1
S1130560823481F0833418F48134F1F405C0833487
S113057079F08434C9F412C08BB3807F8BBB8BB306
S1130580862B8BBB88B3807F88BB88B3862B88BBC4
S113059085B3807F85BB85B3862B85BB82B3807F83
S11305A082BB82B3682B62BB08956295607F8234FC
S11305B081F0833418F48134F1F405C0833479F084
S11305C08434C9F412C08BB38F708BBB8BB3862B6E
S11305D08BBB88B38F7088BB88B3862B88BB85B3ED
S11305E08F7085BB85B3862B85BB82B38F7082BB2E
S11305F082B3682B62BB08950E94630482E463E0C3
S11306000E94490082E464E00E94490082E465E0BB
S11306100E94490082E466E00E94490082E467E0A7
S11306200E94490080E690E00E94DF0481E06CE0D3
S11306300E94F80485E690E00E94DF0482E061E015
S11306400E94F8048AE690E00E94DF0482E06CE0F5
S11306500E94F8048FE690E00E94DF0400E610E0B8
S11306600F2EF5E6EF2EF0E0FF2EF02D0F2EFAE61A
S1130670CF2EF0E0DF2EF02D0F2EFFE6AF2EF0E0B0
S1130680BF2EF02DCAE082E463E00E944D00813069
S113069059F5809175008F5F809375008A3050F40E
S11306A081E064E00E94F80480917500805D0E94FE
S11306B0CD04D6C081E063E00E94F8048091750007
S11306C06C2F0E941905805D0E94CD0481E064E0D6
S11306D00E94F804809175006C2F0E941905892FDF
S11306E0805D0E94CD04BCC082E464E00E944D00A1
S11306F0813059F5809177008F5F809377008A303D
S113070050F481E06FE00E94F80480917700805DEE
S11307100E94CD04A5C081E06EE00E94F80480919F
S113072077006C2F0E941905805D0E94CD0481E042
S11307306FE00E94F804809177006C2F0E941905E5
S1130740892F805D0E94CD048BC082E465E00E9405
S11307504D00813059F5809174008F5F809374004F
S11307608A3050F482E064E00E94F80480917400BE
S1130770805D0E94CD0474C082E063E00E94F804AE
S1130780809174006C2F0E941905805D0E94CD0435
S113079082E064E00E94F804809174006C2F0E944F
S11307A01905892F805D0E94CD045AC082E466E059
S11307B00E944D00813059F5809176008F5F8093BF
S11307C076008A3050F482E06FE00E94F804809151
S11307D07600805D0E94CD0443C082E06EE00E94FA
S11307E0F804809176006C2F0E941905805D0E94A8
S11307F0CD0482E06FE00E94F804809176006C2FB3
S11308000E941905892F805D0E94CD0429C082E4CD
S113081067E00E944D00813019F510927600109225
S11308207400109277001092750061E00E94F80441
S1130830C8010E94DF0481E06CE00E94F804C70153
S11308400E94DF0482E061E00E94F804C6010E9475
S1130850DF0482E06CE00E94F804C5010E94DF041A
S11308608FEF91EEA4E081509040A040E1F700C0EA
S1130870000009CF82E460E041E00E94D3008FE9E8
S11308809FE00197F1F700C0000082E460E040E0DF
S11308900E94D3008FE99FE00197F1F700C00000A8
S11308A00895682F81E40E94020282E461E040E03E
S11308B00E94D3000E943A048FEC97E00197F1F76D
S11308C000C0000008958FEF91EEA4E081509040A5
S11308D0A040E1F700C0000081E460E041E00E9434
S11308E0500081E461E041E00E94500081E462E054
S11308F041E00E94500081E463E041E00E94500026
S113090081E464E041E00E94500081E465E041E05C
S11309100E94500081E466E041E00E94500081E4BE
S113092067E041E00E94500082E460E041E00E9400
S1130930500082E462E041E00E94500082E461E001
S113094041E00E94500082E462E040E00E94D30053
S113095088E30E945104AFECB7E01197F1F700C0AF
S113096000008CE00E9451048FEC97E00197F1F7AE
S113097000C0000081E00E945104AFE1BEE4119781
S1130980F1F700C0000086E00E9451048FEC97E06C
S11309900197F1F700C000000895682F81E40E94D8
S11309A0020282E461E041E00E94D3000E943A0422
S11309B08FEC97E00197F1F700C000000895CF9302
S11309C0DF93EC018881882331F021960E94CD04C5
S11309D089918823D9F7DF91CF91089581E00E940E
S11309E051048FE19EE40197F1F700C000000895DF
S11309F0282F2150223070F4613170F4662371F095
S1130A00813019F4962F91580AC0823041F4962F00
S1130A10915405C090E803C090E801C090E8892F84
S1130A200E9451048FEC97E00197F1F700C0000099
S1130A300895991B79E004C0991F961708F0961B36
S1110A40881F7A95C9F780950895F894FFCF22
S1130A4E413D303000423D303000433D30300044B3
S1070A5E3D303000F3
S9030000FC
